S0130000536F6E617241746D6567612E73726563BF
S11300000C9434000C9451000C9451000C94510045
S11300100C9451000C9451000C9451000C945E010A
S11300200C9451000C9451000C94FF000C9451005A
S11300300C9451000C9451000C9488000C945100C1
S11300400C9451000C9451000C9451000C945100E8
S11300500C9451000C9451000C9451000C945100D8
S11300600C9451000C94510011241FBECFEFD8E022
S1130070DEBFCDBF11E0A0E0B1E0E0E3F7E002C0F5
S113008005900D92A231B107D9F721E0A2E1B1E0C8
S113009001C01D92A432B207E1F70E948C010C94B6
S11300A096030C940000AC01FB01DB019B012B5F68
S11300B03F4F80E38D93A217B307E1F79A01ADECAC
S11300C0BCEC0E948703969587959695879596959F
S11300D087959C01220F331F880F991F880F991F42
S11300E0880F991F820F931F9A01281B390BC9018E
S11300F0805D81939A010E948703AC0156954795D0
S1130100569547955695479541155105B9F6089565
S11301101F920F920FB60F9211242F933F934F9378
S11301205F936F937F938F939F93AF93BF93EF935B
S1130130FF9380911A0190911B01019690931B01EA
S113014080931A0160911C0170911D0180911E0120
S113015090911F010E943402DC01CB0160E271E046
S11301600E94530080911A0190911B0182309105E5
S1130170A1F01CF4019739F031C083309105B9F036
S11301800497F9F02BC08EE788B9E0912001F0E0E4
S1130190E053FF4F80818BB921C08DE788B9E0918E
S11301A02101F0E0E053FF4F80818BB917C08BE74A
S11301B088B9E0912201F0E0E053FF4F80818BB9D0
S11301C00DC087E788B9E0912301F0E0E053FF4FC9
S11301D080818BB910921B0110921A01FF91EF914B
S11301E0BF91AF919F918F917F916F915F914F914B
S11301F03F912F910F900FBE0F901F9018951F9253
S11302000F920FB60F9211242F933F934F935F9346
S11302106F937F938F939F93AF93BF93EF93FF93CA
S11302208091810086FF0EC0E1E8F0E080818F7B41
S11302308083809186009091870090931901809328
S113024018012BC0E1E8F0E0808180648083609134
S11302508600709187007093170160931601809156
S1130260180190911901681B790B70931501609323
S11302701401072E000C880B990B0E9465022DECCB
S11302803CEC4CE85FE30E94F20260931C01709323
S11302901D0180931E0190931F01FF91EF91BF9167
S11302A0AF919F918F917F916F915F914F913F910A
S11302B02F910F900FBE0F901F9018951F920F92C1
S11302C00FB60F9211242F933F938F939F932091F6
S11302D0120130911301809110019091110128179E
S11302E0390744F095B184E0892785B91092130148
S11302F01092120180911201909113010196909332
S11303001301809312019F918F913F912F910F9030
S11303100FBE0F901F9018958FEF8AB987B98EEF93
S113032084B989EF85B916BC8DE487BD9DE095BD80
S113033082E080936E00109285001092840025E480
S11303402093810020E220936F0078941092B200F1
S11303509093B10080937000CCE2D1E00F2EF6E9C7
S1130360CF2ED12CF02D0F2EFBE4EF2EF12CF02DFF
S113037008E210E0299A25E32A95F1F7000029986C
S11303808FEF99E628E1815090402040E1F700C0CA
S1130390000080901C0190901D01A0901E01B0905F
S11303A01F0120E030E048EC52E4C501B4010E9492
S11303B0ED02181624F4D0931101C093100120E02B
S11303C030E048EC52E4C501B4010E942F02181633
S11303D074F020E030E048E452E4C501B4010E9426
S11303E0ED02882324F0D0921101C092100120E084
S11303F030E048E452E4C501B4010E942F0218160B
S113040074F020E030E040E251E4C501B4010E9400
S1130410ED02882324F0F0921101E092100120E013
S113042030E040E251E4C501B4010E942F021816E5
S11304306CF020E030E0A901C501B4010E94ED0296
S1130440882324F0109311010093100110921901D4
S11304501092180110921701109216018BCF0E946E
S1130460A00208F481E008950E94CC0288F09F570E
S113047098F0B92F9927B751B0F0E1F0660F771FC4
S1130480881F991F1AF0BA95C9F714C0B13091F0BA
S11304900E94E602B1E008950C94E602672F782FDB
S11304A08827B85F39F0B93FCCF38695779567957F
S11304B0B395D9F73EF490958095709561957F4FEB
S11304C08F4F9F4F0895E89409C097FB3EF4909591
S11304D08095709561957F4F8F4F9F4F9923A9F019
S11304E0F92F96E9BB279395F695879577956795A8
S11304F0B795F111F8CFFAF4BB0F11F460FF1BC0EC
S11305006F5F7F4F8F4F9F4F16C0882311F096E97E
S113051011C0772321F09EE8872F762F05C066232C
S113052071F096E8862F70E060E02AF09A95660FE5
S1130530771F881FDAF7880F9695879597F908959E
S1130540990F0008550FAA0BE0E8FEEF16161706E0
S1130550E807F907C0F012161306E407F50798F048
S1130560621B730B840B950B39F40A2661F0232B61
S1130570242B252B21F408950A2609F4A140A695DD
S11305808FEF811D811D089557FD9058440F551F0D
S113059059F05F3F71F04795880F97FB991F61F001
S11305A09F3F79F087950895121613061406551F78
S11305B0F2CF4695F1DF08C0161617061806991FE4
S11305C0F1CF86957105610508940895E894BB27D9
S11305D066277727CB0197F908950E94A00208F4B3
S11305E08FEF08950E9405030C9476030E9468031C
S11305F038F00E946F0320F0952311F00C945F03F0
S11306000C94650311240C94E7020E94C40270F355
S1130610959FC1F3950F50E0551F629FF001729FA3
S1130620BB27F00DB11D639FAA27F00DB11DAA1FB2
S1130630649F6627B00DA11D661F829F2227B00DFF
S1130640A11D621F739FB00DA11D621F839FA00D8A
S1130650611D221F749F3327A00D611D231F849FDA
S1130660600D211D822F762F6A2F11249F57504031
S11306709AF0F1F088234AF0EE0FFF1FBB1F661FAC
S1130680771F881F91505040A9F79E3F510580F075
S11306900C945F030C94E7025F3FE4F3983ED4F3B9
S11306A0869577956795B795F795E7959F5FC1F719
S11306B0FE2B880F911D9695879597F9089597F9C4
S11306C09F6780E870E060E008959FEF80EC0895F4
S11306D000240A941616170618060906089500241D
S11306E00A9412161306140605060895092E039497
S11306F0000C11F4882352F0BB0F40F4BF2B11F40B
S113070060FF04C06F5F7F4F8F4F9F4F0895A29F7C
S1130710B001B39FC001A39F700D811D1124911DD1
S1130720B29F700D811D1124911D0895F894FFCF7F
S11307304079243019120278001808034621060E65
S10507402C0186
S9030000FC
