S0130000536F6E617241746D6567612E73726563BF
S11300000C9434000C9451000C9451000C94510045
S11300100C9451000C9451000C9451000C945E010A
S11300200C9451000C9451000C94FF000C9451005A
S11300300C9451000C9451000C9488000C945100C1
S11300400C9451000C9451000C9451000C945100E8
S11300500C9451000C9451000C9451000C945100D8
S11300600C9451000C94510011241FBECFEFD8E022
S1130070DEBFCDBF11E0A0E0B1E0ECEDF5E002C0E1
S113008005900D92A031B107D9F721E0A0E1B1E0CC
S113009001C01D92A232B207E1F70E947B010C94C9
S11300A0EC020C940000AC01FB01DB019B012B5F13
S11300B03F4F80E38D93A217B307E1F79A01ADECAC
S11300C0BCEC0E94DD02969587959695879596954A
S11300D087959C01220F331F880F991F880F991F42
S11300E0880F991F820F931F9A01281B390BC9018E
S11300F0805D81939A010E94DD02AC01569547957B
S1130100569547955695479541155105B9F6089565
S11301101F920F920FB60F9211242F933F934F9378
S11301205F936F937F938F939F93AF93BF93EF935B
S1130130FF938091180190911901019690931901F0
S11301408093180160911A0170911B0180911C0128
S113015090911D010E94B301DC01CB016EE171E0BD
S11301600E945300809118019091190182309105E9
S1130170A1F01CF4019739F031C083309105B9F036
S11301800497F9F02BC08EE788B9E0911E01F0E0E6
S1130190E053FF4F80818BB921C08DE788B9E0918E
S11301A01F01F0E0E053FF4F80818BB917C08BE74C
S11301B088B9E0912001F0E0E053FF4F80818BB9D2
S11301C00DC087E788B9E0912101F0E0E053FF4FCB
S11301D080818BB91092190110921801FF91EF914F
S11301E0BF91AF919F918F917F916F915F914F914B
S11301F03F912F910F900FBE0F901F9018951F9253
S11302000F920FB60F9211242F933F934F935F9346
S11302106F937F938F939F93AF93BF93EF93FF93CA
S11302208091810086FF0EC0E1E8F0E080818F7B41
S1130230808380918600909187009093170180932A
S113024016012BC0E1E8F0E0808180648083609136
S1130250860070918700709315016093140180915A
S1130260160190911701681B790B70931301609329
S11302701201072E000C880B990B0E94E4012DEC4F
S11302803CEC4CE85FE30E94480260931A017093CF
S11302901B0180931C0190931D01FF91EF91BF916D
S11302A0AF919F918F917F916F915F914F913F910A
S11302B02F910F900FBE0F901F9018951F920F92C1
S11302C00FB60F9211248F939F93809110019091F8
S11302D0110101969093110180931001CC9724F0A1
S11302E095B184E0892785B99F918F910F900FBEB6
S11302F00F901F9018958FEF8AB987B98EEF84B944
S113030089EF85B916BC8DE487BD9DE095BD82E07B
S113031080936E00109285001092840025E420934F
S1130320810020E220936F0078941092B2009093A1
S1130330B10080937000299A25E32A95F1F7000013
S113034029988FEF99E628E1815090402040E1F709
S113035000C00000109217011092160110921501AE
S113036010921401E8CF0E94270288F09F5798F05A
S1130370B92F9927B751B0F0E1F0660F771F881FA6
S1130380991F1AF0BA95C9F714C0B13091F00E94C0
S11303904102B1E008950C944102672F782F882719
S11303A0B85F39F0B93FCCF3869577956795B395E7
S11303B0D9F73EF490958095709561957F4F8F4F56
S11303C09F4F0895E89409C097FB3EF4909580955B
S11303D0709561957F4F8F4F9F4F9923A9F0F92F07
S11303E096E9BB279395F695879577956795B79585
S11303F0F111F8CFFAF4BB0F11F460FF1BC06F5F6B
S11304007F4F8F4F9F4F16C0882311F096E911C07C
S1130410772321F09EE8872F762F05C0662371F09D
S113042096E8862F70E060E02AF09A95660F771FB1
S1130430881FDAF7880F9695879597F9089557FDE1
S11304409058440F551F59F05F3F71F04795880F3E
S113045097FB991F61F09F3F79F0879508951216D5
S113046013061406551FF2CF4695F1DF08C0161681
S113047017061806991FF1CF869571056105089432
S11304800895E894BB2766277727CB0197F9089549
S11304900E945B020C94CC020E94BE0238F00E94BF
S11304A0C50220F0952311F00C94B5020C94BB0204
S11304B011240C9442020E941F0270F3959FC1F311
S11304C0950F50E0551F629FF001729FBB27F00DFE
S11304D0B11D639FAA27F00DB11DAA1F649F662753
S11304E0B00DA11D661F829F2227B00DA11D621FA2
S11304F0739FB00DA11D621F839FA00D611D221F5C
S1130500749F3327A00D611D231F849F600D211D3F
S1130510822F762F6A2F11249F5750409AF0F1F0C2
S113052088234AF0EE0FFF1FBB1F661F771F881F2B
S113053091505040A9F79E3F510580F00C94B502AC
S11305400C9442025F3FE4F3983ED4F3869577958A
S11305506795B795F795E7959F5FC1F7FE2B880FD1
S1130560911D9695879597F9089597F99F6780E867
S113057070E060E008959FEF80EC089500240A94F1
S11305801616170618060906089500240A9412166A
S11305901306140605060895092E0394000C11F49D
S11305A0882352F0BB0F40F4BF2B11F460FF04C04A
S11305B06F5F7F4F8F4F9F4F0895A29FB001B39FEE
S11305C0C001A39F700D811D1124911DB29F700D58
S10F05D0811D1124911D0895F894FFCFA3
S11305DC4079243019120278001808034621060EBB
S9030000FC
